:020000020000FC
:1000000000C001E007BB0FEF0EBD01E600BF2AD024
:10001000842E952EA62EB72E00C00EB50A950EBDC5
:1000200021D0C42ED52EE62EF72E8C149D04AE04BE
:10003000BF0470F00EB503950EBD14D0C42ED52E9E
:10004000E62EF72E8C149D04AE04BF0430F0E5CFED
:100050008C2C9D2CAE2CBF2CE0CF8C2C9D2CAE2C50
:10006000BF2CE8CF07EC15D0402C512C01EC11D05F
:10007000602C712C6627772700E14694579410F482
:10008000660D771D77956795579547950A95A9F75A
:10009000089507B90024112410E104ED06B9369A39
:1000A000349BFECF04B1000E05B1101E1A95B9F7AE
:0E00B00014E0169407941A95E1F73798089516
:00000001FF
